:1000000000100020B91500007D1100007F110000D4
:1000100000000000000000000000000000000000E0
:10002000000000000000000000000000811100003E
:100030000000000000000000831100008511000096
:1000400000000000091600000916000095110000CC
:100050000916000009160000091600000000000043
:100060000000000000000000091600000916000052
:100070000916000009160000091600000000000023
:100080000000000009160000091600000916000013
:100090000000000000000000091600000916000022
:1000A00009160000091600000916000009160000D4
:0C00B000091600000916000009160000E7
:1000BC00002243088B4274D303098B425FD3030A9B
:1000CC008B4244D3030B8B4228D3030C8B420DD3AE
:1000DC00FF22090212BA030C8B4202D3121209023C
:1000EC0065D0030B8B4219D300E0090AC30B8B427A
:1000FC0001D3CB03C01A5241830B8B4201D38B0328
:10010C00C01A5241430B8B4201D34B03C01A5241CC
:10011C00030B8B4201D30B03C01A5241C30A8B420F
:10012C0001D3CB02C01A5241830A8B4201D38B02FA
:10013C00C01A5241430A8B4201D34B02C01A52419E
:10014C00030A8B4201D30B02C01A5241CDD2C30910
:10015C008B4201D3CB01C01A524183098B4201D38C
:10016C008B01C01A524143098B4201D34B01C01A77
:10017C00524103098B4201D30B01C01A5241C308EF
:10018C008B4201D3CB00C01A524183088B4201D35E
:10019C008B00C01A524143088B4201D34B00C01A4A
:1001AC005241411A00D20146524110467047FFE7B6
:1001BC0001B5002000F006F802BDC0460029F7D0BA
:1001CC0076E770477047C046002B11D1002A0FD13B
:1001DC00002900D1002802D00021C943080007B42F
:1001EC00024802A14018029003BDC046D9FFFFFF90
:1001FC0003B4684601B5029801F030FA019B9E46A3
:10020C0002B00CBC7047C04610B5002903D100F0F9
:10021C0007F8203002E0080000F002F810BDC046DC
:10022C001C2101231B04984201D3000C10391B0A1A
:10023C00984201D3000A08391B09984201D30009DE
:10024C00043902A2105C40187047C0460403020235
:10025C000101010100000000000000000448054BF2
:10026C0010B5834203D0044B002B00D0984710BD2F
:10027C00D0000020D00000200000000006480749F4
:10028C00091A8B10C90FC91810B5491003D0044BAB
:10029C00002B00D0984710BDD0000020D0000020CB
:1002AC000000000010B5074C2378002B09D1FFF794
:1002BC00D5FF054B002B02D0044800E000BF012302
:1002CC00237010BDD0000020000000004819000071
:1002DC00054B10B5002B03D00449054800E000BFC6
:1002EC00FFF7CCFF10BDC04600000000D40000207A
:1002FC0048190000F0B5DE4657464E464546E0B577
:10030C0083B089461700166901240025B046060003
:10031C0006E000232000290001F072F904000D0012
:10032C0022002B0030004946FFF74EFFFA680029E7
:10033C00EFD18242EDD9B346464600239846BA46E1
:10034C005F464B46B1461E0012E00023AB4230D84C
:10035C000CD1A3450AD92CE03023019A944663446E
:10036C004A46137001239C46E044E14404000D000E
:10037C0023002B4328D022002B0038003100FFF73C
:10038C0023FF0190009022002B0038003100FFF772
:10039C001BFF17001E005246D26893460023200014
:1003AC002900FFF711FF4246002A02D1009B002BC7
:1003BC00CBDD009B092BCFDD53461B785B0701D5AA
:1003CC003723CAE75723C8E74E46337003B0F0BC57
:1003DC00BB46B246A946A046F0BD70B504000D1E42
:1003EC0004DB20002900FFF785FF70BD0025444287
:1003FC008D412D231372F4E7F0B5DE4657464E4679
:10040C00C0B582B005000F000E69012400E05C430A
:10041C0021002800FFF74CFEFB689842F7D200231E
:10042C0099460CE0A34509D922E03023019A944661
:10043C006344337001239C46E14401360400002CD4
:10044C0020D021002800FFF733FE019082462100C6
:10045C002800FFF7B3FE0D00FB689B461900200037
:10046C00FFF726FE4B46002B02D15346002BD9DD5D
:10047C005346092BD9DD3B785B0701D53723D5E7EC
:10048C005723D3E70023337002B0E0BCBB46B2461F
:10049C00A946F0BD10B5002802DBFFF7ADFF10BD7B
:1004AC0040422D230B72F8E7F0B5DE4657464E4618
:1004BC00C0B582B005000F000E69012400E05C435A
:1004CC0021002800FFF7F4FDFB689842F7D20023C7
:1004DC0099460CE0A34509D922E03023019A9446B1
:1004EC006344337001239C46E14401360400002C24
:1004FC0020D021002800FFF7DBFD0190824621006F
:10050C002800FFF75BFE0D00FB689B4619002000DE
:10051C00FFF7CEFD4B46002B02D15346002BD9DD05
:10052C005346092BD9DD3B785B0701D53723D5E73B
:10053C005723D3E70023337002B0E0BCBB46B2466E
:10054C00A946F0BD10B5002802DBFFF7ADFF10BDCA
:10055C0040422D230B72F8E70300303BDBB2092B32
:10056C000BD90300613BDBB2052B08D90300413BDF
:10057C00DBB2052B05D8373870473038FCE75738D5
:10058C00FAE701204042F7E7F8B5CE46474680B57A
:10059C0007008946160098460D68002403E0744352
:1005AC0024182F7801353800FFF7D6FF002801DB1F
:1005BC00B042F4DD4B461D6043461C603800C0BCA5
:1005CC00B946B046F8BDF0B5C64600B505000E00FC
:1005DC0017005468136901E0013C13005A1C1B7886
:1005EC00002B01D0002CF7DC3B7A002B00D0013C17
:1005FC003B780222110019401A4202D0FA68102AE4
:10060C0027D0002902D0FA68082A24D009221A42DD
:10061C0027D0397A002901D02800B0473B78022234
:10062C00110019401A4202D0FB68102B1FD0002970
:10063C0002D0FB68082B26D03B78DB072BD43B6918
:10064C005A1C9046197800292BD02800B0474346F5
:10065C00F6E7023CDAE7013CD8E720212800B04756
:10066C004446631E9846002CF7DC1C00D1E7302171
:10067C002800B0473B785B0703D558212800B047CA
:10068C00DAE77821FAE730212800B047D4E73021A7
:10069C002800B0474446631E9846002CF7DC1C002B
:1006AC00CDE73A7809231340082B06D080BCB84616
:1006BC00F0BD20212800B0473C00671E002CF8DC60
:1006CC00F4E7000070B58EB005000C0001920093A9
:1006DC0003AB0D9301E02800A047019B5A1C01922B
:1006EC001978002900D126E12529F4D109AB1A7813
:1006FC0001218A431A70D2B201318A431A70002147
:10070C000A91D2B2082082431A701972019B5A1CAA
:10071C0001921878002805D02D281CD0302820D024
:10072C00232824D00300303BDBB2092B25D92E28FB
:10073C0029D07A2836D06C283AD000217828CCD809
:10074C00582842D30300583BDAB2202AC5D893006C
:10075C007A4AD3589F4609AA137808210B43137081
:10076C00D4E709AA137801210B431370CEE709AA29
:10077C00137802210B431370C8E70AAB0A2201A9B4
:10078C00FFF702FFD3E709AA137801210B4313707B
:10079C00019B5A1C019218780300303BDBB2092BE9
:1007AC00F6D9C6E7019B5A1C019218780121C5E7BE
:1007BC00019B5A1C019218786C2801D00121BDE7CD
:1007CC009A1C019258780221B8E7002800D1B2E0B7
:1007DC00252882D101002800A0477EE70A230C932C
:1007EC0002290ED0012919D0009B1A1D00921868FD
:1007FC0009A9FFF759FE09AA21002800FFF7E3FE1B
:10080C006BE7009B0733072293431A0008320092D0
:10081C001868596809AAFFF76DFDECE7009B1A1DD3
:10082C000092186809A9FFF7E7FDE4E70A230C9387
:10083C0002290ED0012919D0009B1A1D00921868AC
:10084C0009A9FFF77FFE09AA21002800FFF7BBFECC
:10085C0043E7009B0733072293431A0008320092A8
:10086C001868596809AAFFF7B8FDECE7009B1A1D38
:10087C000092186809A9FFF70DFEE4E709AA13789E
:10088C0002210B431370002109AE10230C9358382E
:10089C00434258418200337804208343134333701E
:1008AC0002290ED0012919D0009B1A1D009218683C
:1008BC0009A9FFF7F9FD09AA21002800FFF783FE1B
:1008CC000BE7009B0733072293431A000832009270
:1008DC00186859683200FFF70DFDECE7009B1A1DF4
:1008EC000092186809A9FFF787FDE4E709AE082311
:1008FC000C93009B1A1D009218683100FFF7D4FD71
:10090C00320021002800FFF75EFEE6E6009B1A1D70
:10091C00009219782800A047DFE6009B1A1D009270
:10092C001B6809AE0D93320021002800FFF74BFE27
:10093C0003AB0D93D1E60EB070BDC046601900003C
:10094C00024B1960024B18607047C046F000002043
:10095C00EC0000200FB400B583B004AB04CB0193C2
:10096C000449096804480068FFF7ACFE03B008BCF2
:10097C0004B01847F0000020EC00002010B502482D
:10098C0000F06AFC10BDC04640420F0010B500F0EC
:10099C0071FC10BD10B543011B1A9B001818C00048
:1009AC00FFF7F4FF10BD7047F0B583B001AC3023F6
:1009BC00E37011272770012565700026A6702100B1
:1009CC00144800F0CBFC3C23E37027706570A670D4
:1009DC002100114800F0C2FCF823E370257065700B
:1009EC0021000E4800F0BAFC6C460823E370257019
:1009FC006570A5700221002000F06CFC032103201F
:100A0C0000F028FD80206946C00500F0A7FC03B06B
:100A1C00F0BDC04600040040000C0040000800403F
:100A2C0030B583B00B4D280000F048FD6C4668468D
:100A3C0000F0A0FD002363712F222280303A6280E7
:100A4C0023716946280000F06DFD280000F09AFD26
:100A5C0003B030BD0038004010B502490020FFF74C
:100A6C006FFF10BDB3090000704710B5FFF79CFF76
:100A7C00FFF7D6FFFFF7F8FFFFF7EEFFFFF77EFF5C
:100A8C0000F048FB00F0AEFAFCE710B5002A03D0EA
:100A9C00C9B200F0A1FC10BDC9B200F0A1FCFAE78C
:100AAC0030B5002300E00133934206D29C000D19AF
:100ABC000C5B8442F7D1A87800E0002030BD000028
:100ACC0070B5394D280000F068FD040000212800A5
:100ADC0000F05DFD354BE3189BB2FA229200934275
:100AEC0009D8334B00221A60324B1A70314B1B78E9
:100AFC00202B31D070BD304BE3189BB22F4A934260
:100B0C00F4D92F4BE3189BB29622920093420DD846
:100B1C00284A137880210906D940254803680B43DD
:100B2C00036013780133DBB21370DFE7254B9C466F
:100B3C006444A4B296239B009C42D7D81D4A1378D8
:100B4C0080210906D9401A4803688B430360137847
:100B5C000133DBB21370C9E7154A1368DB43DBB210
:100B6C0019490B7013681B0ADBB2184A13700B7807
:100B7C0012789A4203D00F4B00221A70BAE70C4B32
:100B8C001A68134B1A601B681B0E124A13700F4B1A
:100B9C001878C0B210491122FFF782FF0F4B187062
:100BAC000F4B01221A70E6E70038004038CDFFFFEA
:100BBC000401002002010020F0D8FFFFB80B000058
:100BCC0030F8FFFF18FCFFFF00010020010100209E
:100BDC00FC000020F8000020840000200901002007
:100BEC000801002070B5002618E0234BA4001B1947
:100BFC00585D22491422FFF753FF214B1870012531
:100C0C002AE0204B6D00E95A01221F48FFF73DFFF7
:100C1C00FA204000FFF7BAFE0136F6B2032E1AD8BE
:100C2C003500184B7200D15A00221748FFF72DFFE0
:100C3C00FA204000FFF7AAFE0024042CE1D8114B47
:100C4C00621D5200D15C114800F0CEFB0028CCD0C4
:100C5C000134E4B2F1E70025002408E0094B6200FE
:100C6C00D15A01220848FFF710FF0134E4B2032CDB
:100C7C00F4D9280070BDC0461800002034000020B4
:100C8C000901002004000020000C00400008004076
:100C9C0010B5002300E00133934204D2CC5C8442B3
:100CAC00F9D1012000E0002010BD30B50023002454
:100CBC0005E005001D4101222A4054400133072B59
:100CCC00F7DD2000484030BD10B544000121FFF78E
:100CDC00ECFF400280B204438020C000204310BDD2
:100CEC0010B50C001100FFF7E0FF001B4342584108
:100CFC00C0B210BD10B52021014800F075FB10BD2D
:100D0C000004004010B51021014800F06DFB10BD2F
:100D1C000004004010B5020020210248FFF7B5FE88
:100D2C0010BDC0460004004070B50400264B0122E3
:100D3C001A7026482100FFF70DFE2000FFF7C4FFB4
:100D4C000500FE280FD00300214A13800024FFF772
:100D5C00D1FF01280FD0642C09D80134A4B2322061
:100D6C00FFF714FEF3E71A4B1B889BB2ECE719480C
:100D7C00FFF7F0FD26E000240A2C20DC1420FFF7FE
:100D8C0005FEFFF7B7FF012815D12A0022410123E8
:100D9C001A4010211048FFF778FE1E20FFF7F6FDD1
:100DAC000020FFF7B7FF3C20FFF7F0FD0120FFF715
:100DBC00B1FF0134E0E70948FFF7CCFDC6E7024B71
:100DCC0000221A7070BDC0460A010020E419000010
:100DDC0002000020F8190000000400400C1A00006A
:100DEC0010B5404B00221A8000241AE01B20FFF79C
:100DFC00CDFD0020FFF78EFF3920FFF7C7FD012046
:100E0C00FFF788FF1021384800F0EEFA0300A340EA
:100E1C00344A1088184380B210801E20FFF7B6FDAC
:100E2C000134092CE2DDFFF765FF002805D12D4BBD
:100E3C00FC221A801888C0B210BDFFF763FF01288E
:100E4C0019D00024FFF75EFF012843D01E20FFF7C6
:100E5C009DFD0120FFF75EFF3C20FFF797FD002072
:100E6C00FFF758FF1E20FFF791FD0134A4B2642C4C
:100E7C00E8D9FC20E0E71C4C002210212000FFF7F1
:100E8C0004FE1B20FFF782FD0020FFF743FF3C20F0
:100E9C00FFF77CFD0120FFF73DFF0520FFF776FDF6
:100EAC00012210212000FFF7F0FD0E4B18881B8843
:100EBC005B0A012119404008C0B20122FFF710FF64
:100ECC00002803D1FC30FFF72FFF06E04120FFF78D
:100EDC005DFD02E0FB30FFF727FF024B1888C0B224
:100EEC00AAE7C046F60000200004004010B5374BBE
:100EFC001B889B08DBB21333DAB2122A5BD893003F
:100F0C00334AD3589F46FA20FFF70EFF9620400035
:100F1C00FFF73CFDAA20FFF707FF08E02D4B1888D0
:100F2C00C0B2FFF701FF02E0FA20FFF7FDFE274BEE
:100F3C001B88DBB2284A1370284B00221A7010BD94
:100F4C00FA20FFF7F1FE264B00221A70EFE7FA2089
:100F5C00FFF7EAFE224B01221A70E8E7FA20FFF7AE
:100F6C00E3FEFFF73DFFFA20FFF7DEFEDFE7FA2096
:100F7C00FFF7DAFEAB20FFF7D7FE96204000FFF715
:100F8C0005FD8320FFF7D0FED1E7FA20FFF7CCFE5A
:100F9C00FFF726FFFA20FFF7C7FEC8E7EE20FFF7A2
:100FAC00C3FEC4E7FA20FFF7BFFEFFF719FFFA20D4
:100FBC00FFF7BAFEBBE7084B1B78044A12889A422B
:100FCC00B5D0FE20FFF7B0FEB1E7C046F60000201A
:100FDC006C1A000002000020F40000200A0100201E
:100FEC000000002010B5FFF78DFE01384342584138
:100FFC00C0B23D4B1870FFF77DFE0138434258419B
:10100C00C0B23A4B18703A4B1B78002B03D1374BBC
:10101C001B78012B04D0374B1B78002B18D110BD3B
:10102C00314B1B78002BF6D1314C033323703248F3
:10103C00FFF790FCFFF7D4FE304B19888908C9B232
:10104C002F48FFF787FCFFF751FF00232370E2E7DF
:10105C00FFF7C8FD002803D12A4B1B78002BDED0EC
:10106C00294C2178C9B22948FFF774FC2078C0B20A
:10107C0027490622FFF70CFE002826D1224C2078A7
:10108C00C0B2FFF751FE1E20FFF784FC2078C0B2DF
:10109C001F490622FFF7FCFD00281DD1F020FFF7A9
:1010AC0043FE1E20FFF776FC174B1878C0B2FFF7F3
:1010BC003BFE144B1B78002B02D0124B00221A70F3
:1010CC00FA204000FFF766FCA9E7E020FFF72CFEB2
:1010DC001E20FFF75BFCD1E7E020FFF725FE1E206A
:1010EC00FFF754FCDAE7C046C8000020C900002016
:1010FC000A01002000000020301A0000F600002039
:10110C00401A00000801002009010020541A0000B8
:10111C002C00002010B5002407E0114B6200D15ABE
:10112C0000221048FFF7B1FC0134032CF5DD0E4C06
:10113C00012210212000FFF7A8FC01222021200011
:10114C00FFF7A3FC96204000FFF724FC074C02237A
:10115C002370AA20FFF7E8FD0023237010BDC046C2
:10116C0004000020000C0040000400400A01002094
:10117C007047FEE770477047024A1368013B1360E3
:10118C007047C0460C01002010B5FFF799FC0020F9
:10119C0000F0DCF810BD00000C4B196810220A435B
:1011AC001A6019680720814301220A431A60084B10
:1011BC0099690A0082439A61996920220A439A61CB
:1011CC0099691822914399617047C04600100140FB
:1011DC000000014010B5FFF7DFFF10BD10B50E4B3E
:1011EC0001221A6000225A60E12119615A61C93941
:1011FC009961E731D9619962D9631A625A62064BD7
:10120C005B6ADB07FBD4044B00245C621C63FFF7B6
:10121C00E1FF024B9C6010BD0000014000ED00E0BE
:10122C00013880235B0498420FD2094A5060094868
:10123C00036A1B021B0AC02109060B43036200232D
:10124C00936007331360002070470120FCE7C04611
:10125C0010E000E000ED00E010B5040000F00AF929
:10126C002100FEF725FFFFF7DBFF002800D0FEE78B
:10127C0010BD000082B00190134B1A6801218A4303
:10128C001A6000229A601A680A431A600F4A13788F
:10129C000133DBB21370019B5B005B080C4A1360DB
:1012AC000B4B1B68002BFBDC08490A78531EDBB286
:1012BC000B70012A01D002B07047034A1368012158
:1012CC008B431360F7E7C04610E000E010010020EC
:1012DC000C01002006280BD880001A4B1B589F4687
:1012EC0003230B4018490A680320824313430B6005
:1012FC0070471548036803220A4092000C218B4367
:10130C0013430360F4E71048036803220A401201F8
:10131C0030218B4313430360EAE70B480368032235
:10132C000A409201C0218B4313430360E0E7064857
:10133C00436801220A40920004218B43134343600B
:10134C00D6E7C046B81A00000018004001238340BD
:10135C00014A93607047C04600180040F0B5D6466D
:10136C004F464646C0B58246C56807698668002464
:10137C0008E065461AE08A78002A21D01F434E46C1
:10138C000134E4B2072C1ED80123A340CA781342BF
:10139C00F6D02A009A4394463A009A43904632007B
:1013AC009A4391460A78D007E3D51D43D206E2D57D
:1013BC001E434A78002A01D01F43E1E74746DFE786
:1013CC004E464746DCE75346DD601F619E60E0BC3D
:1013DC00BA46B146A846F0BD03680B43036070479C
:1013EC0003688B430360704740680840431E984174
:1013FC00C0B2704770B5002811DB8308134DC033A1
:10140C009B005C5903221040C000FC321600864041
:10141C00B44389010A40824022435A5170BD0F23C4
:10142C000340083B9B0806339B00094A94466344DF
:10143C005C6803221040C000FC3215008540AC43B0
:10144C0089010A40824022435A60E7E700E100E04C
:10145C0000ED00E010B50400FFF7CCFF002C05DB1D
:10146C001F22224001239340014A136010BDC04645
:10147C0000E100E010B50E4BDB68DBB2E12B05D0D0
:10148C00B42B10D0D22B10D0002010BD084A936979
:10149C00DB069B0F0748D84093699B06F5D40321C4
:1014AC00FEF706FEF1E70448EFE7FA204002ECE70E
:1014BC0000000140006CDC020024F40000230360F7
:1014CC0043608360C36003618361036343630122F0
:1014DC00026242628262C2620363436303624362DA
:1014EC008362C3628363C36303644364FF218164C7
:1014FC00C16443658365C365036643668366C366DF
:10150C000367C367C2618367436703654361044B29
:10151C00984200D0704784230022C250FAE7C0469C
:10152C000010004010B54B881B0A83644A88FF23C7
:10153C001A40C2640A88120A02640A88134043647F
:10154C004C7903680322224052016024A3431343C5
:10155C0003604B791B0901221A4003681201503CAD
:10156C00A343134303600B790365C369012213433F
:10157C00C36110BD002343710380013B43800023F2
:10158C0003717047036801221343036070470B0A11
:10159C008363FF230B40C36370470200836B9BB2D2
:1015AC001B0298B2D36B9BB2184370470D4885460B
:1015BC000D480E490E4A002302E0D458C45004339F
:1015CC00C4188C42F9D30B4A0B4C002301E0136076
:1015DC000432A242FBD3FFF701FE00F00BF9FFF738
:1015EC0044FAFEE70010002000000020D00000208C
:1015FC00E81A0000D0000020AC020020FEE700003A
:10160C00F0B5CE469946030C9C46130447461B0C7A
:10161C001D000E0061460404240C80B50700100C5C
:10162C004B436543414360432C0CC01824188C4633
:10163C00A34203D980235B029846C44449467943AC
:10164C005643230C2D042D0C891963442404601972
:10165C00C918C0BCB946B046F0BDC046F0B5574637
:10166C004E464546DE46E0B504000D0092469946CE
:10167C0083B08B4230D82DD049465046FEF7C4FD7E
:10168C00290006002000FEF7BFFD331A9846203BC8
:10169C0034D49B4653465A46934042461F00534609
:1016AC0093401E00AF423BD8AF4200D179E05B467D
:1016BC00A41BBD41002B00DA76E00022002300922F
:1016CC00019301235A4693400193012342469340D0
:1016DC00009329E08242CFD900220023009201938B
:1016EC000C9B002B01D01C605D600098019903B02D
:1016FC00F0BCBB46B246A946A046F0BD42469B464E
:10170C0020239B1A5246DA40414613004A468A402F
:10171C00170042461F43534693401E00AF42C3D9A5
:10172C0000220023009201934346002BD8D0FB07E4
:10173C0072081A4346467B080EE0AB4201D1A24226
:10174C000CD8A41A9D41012024196D410021013EA1
:10175C0024184D41002E06D0AB42EED9013E24197F
:10176C006D41002EF8D1009801995B460019694132
:10177C00002B24DB2B005A464646D3402A001C0083
:10178C00F2405B461500002B2ADB26009E403300FE
:10179C0026004746BE403200801A994100900191C4
:1017AC009EE7A342BCD882E74246202300219B1A25
:1017BC000022009101920122DA40019285E7424613
:1017CC0020239B1A2A0046469A402300F3404646A3
:1017DC0013432A001C00F2405B461500002BD4DAA0
:1017EC00202342462F009B1B97402600DE403B00E7
:1017FC003343CDE770B50D4B0D4D5E1BB610AB42B0
:10180C0005D0002408CD01349847A642FAD800F040
:10181C0095F8084B084D5E1BB610AB4205D0002462
:10182C0008CD01349847A642FAD870BDDC1A0000E6
:10183C00DC1A0000E41A0000DC1A00007047C046F5
:10184C007047C046034B10B5002B02D0024800F085
:10185C0005F810BD000000007918000010B501005B
:10186C0000230022002000F015F810BD70B5074CC5
:10187C00074D641BA41005D0013CA300EB589847FE
:10188C00002CF9D100F060F870BDC046E81A0000D9
:10189C00E41A0000F0B5D6464F4646469846244B0F
:1018AC00C0B5060018689A460F009146FFF7C6FFB0
:1018BC00204B1D68002D32D053466C6818681F2CC5
:1018CC0030DC002E0CD1631C0234A4006B60675119
:1018DC00FFF7B6FF0020E0BCBA46B146A846F0BD03
:1018EC0049468822A300EB189950C42149008C4624
:1018FC00AC446146873AA24009689146114362465E
:10190C0011608421424649005A50022EDBD1290035
:10191C004A468D31FF310B6813430B60D3E7064DFC
:10192C001D60C9E7FFF78CFF01204042D3E7C0469A
:10193C00CC000020180100201C010020F8B5C04686
:10194C00F8BC08BC9E467047F8B5C046F8BC08BC4D
:04195C009E467047EC
:1019600094080000E6060000E6060000E606000017
:10197000E6060000E6060000E6060000E6060000B7
:10198000E6060000E6060000E60600001809000072
:1019900038080000E6060000E6060000E606000043
:1019A000E606000038080000E6060000E606000033
:1019B000E6060000E6060000E6060000F808000063
:1019C00088080000E6060000E60600002609000080
:1019D000E6060000E8070000E6060000E606000054
:1019E00094080000E58F91E98081E695B0E68DAE20
:1019F000EFBC9A25780A0000E58F91E98081E69591
:101A0000B0E68DAEE8B685E697B60000E4B8BBE672
:101A10009CBAE8AEA4E4B8BAE69C89E99499E8AF28
:101A2000AFE4B8ADE6ADA2E58F91E980810000009A
:101A3000E5BC80E5A78BE68EA5E694B60A0000001B
:101A4000E694B6E588B0E68C87E4BBA4EFBC9A25A3
:101A5000780A0000E68C89E4B88BE68C89E994AEBC
:101A6000EFBC9A307825580A00000000B00F000043
:101A7000A80F0000C20F0000960F0000C20F000068
:101A80007A0F0000680F00005A0F00004C0F000092
:101A9000340F0000340F0000340F0000340F00003A
:101AA000340F0000340F0000340F0000340F00002A
:101AB000280F0000120F0000EC120000FE120000C0
:101AC0001213000026130000FC120000FC1200009C
:041AD0003A130000C5
:081AD40094FBFF7F01000000FC
:081ADC0051180000DD020000BA
:041AE400B10200004B
:101AE8000100AA0020001000080004000000800087
:101AF800400020001000080000010203040506074A
:101B080008090A0B0C0D0E0F1011121375726B7465
:101B18007A7D0000100005000C0005001100060089
:101B28000D0006000E00040008000C000900030068
:101B38000A000B000400830005000A0006000100EB
:101B4800010076000700760013007D0012007A007D
:101B58000F00750000006B0003005A0002007400BB
:101B68000B007200A200050062000600E2000400FB
:101B780022000C0002000300C2000B00E0008300FA
:101B8800A8000A00900001009800760068007D0017
:101B9800B0007A001800750010006B0038005A0079
:101BA8005A0074004A007200FFFF00001401002070
:04000003000015B92B
:00000001FF
